:100000006F001041130000001300000013000000F7
:100010001300000013000000130000001300000094
:100020001300000013000000130000001300000084
:08003000130000007300100032
:100038000000000000000000C4090000C80900001A
:1000480000000000560B0000000000000000000047
:10005800580B00005A0B00000000000000000000D0
:100068005C0B0000000000005E0B000000000000B8
:10007800600B0000620B0000640B0000660B0000C0
:10008800680B00006A0B00006C0B00006E0B000090
:10009800700B0000720B0000740B0000760B000060
:1000A800780B00007A0B00007C0B00007E0B000030
:1000B800800B0000820B0000840B0000860B000000
:1000C800880B00008A0B00008C0B00008E0B0000D0
:1000D800900B0000920B0000940B0000960B0000A0
:1000E800980B00009A0B00009C0B00009E0B000070
:1000F800A00B0000A20B0000A40B0000A60B000040
:10010800A80B0000AA0B00009A110000AE0B00001B
:10011800B00B0000B20B0000B40B0000B60B0000DF
:10012800B80B0000BA0B0000BC0B0000BE0B0000AF
:10013800C00B0000C20B0000C40B0000C60B00007F
:10014800C80B0000CA0B0000CC0B0000CE0B00004F
:10015800D00B0000D20B0000D40B0000D60B00001F
:10016800D80B0000DA0B0000DC0B0000DE0B0000EF
:10017800E00B0000E20B0000E40B0000E60B0000BF
:10018800E80B0000EA0B0000EC0B0000EE0B00008F
:10019800F00B0000F20B0000F40B0000F60B00005F
:1001A800F80B0000FA0B0000FC0B0000FE0B00002F
:1001B800000C0000020C0000040C0000060C0000FB
:1001C800080C00000A0C00000C0C00000E0C0000CB
:1001D8000000000000000000000000000000000017
:1001E8000000000000000000000000000000000007
:0801F8000000000000000000FF
:100200003D432A876373C3029377F700BDEFADE5E3
:10021000937606FF3D8ABA960CC34CC30CC74CC7F5
:100220004107E36BD7FE11E28280B306C3408A0622
:100230009702000096966780A6002307B700A306E2
:10024000B7002306B700A305B7002305B700A30432
:10025000B7002304B700A303B7002303B700A3022A
:10026000B7002302B700A301B7002301B700A30022
:10027000B7002300B700828093F5F50F93968500B1
:10028000D58D93960501D58D61B79396270097027A
:10029000000096968682E78086FA9680C1171D8FA9
:1002A0003E96E374C3F8A5B7376500004111130506
:1002B000854E06C6EF100024056513058538EF004E
:1002C000F074376500001305454FEF10A022B240CF
:1002D0001305803E41016F00707301114AC83769F0
:1002E00000001305894F06CE22CC26CA4EC652C442
:1002F00056C2EF1020201305803EEF003071B76921
:100300000000B7040020938509501385843BEF104B
:10031000001F23AAA19C376A000083A7419DB5C78F
:100320003765000013058551EF10C01C1305803E92
:10033000EF00D06D3769000013058952EF10801B64
:100340001305803EEF00906CB76900009385495318
:100350001385843BEF10A01A23AAA19C376A0000E2
:1003600083A7419DB1CF376500001305C554EF1039
:1003700060186244F240D2444249B249224A924A49
:100380001305803E05616F00706813058A50EF10F9
:1003900060161305803EEF0070671305894F238EAA
:1003A0000180EF1020151305803EEF003066938525
:1003B00009501385843BEF10801423AAA19CB1BF80
:1003C00013050A54EF1000131305803EEF0010646C
:1003D00013058952238E0180EF10C0111305803E52
:1003E000EF00D062938549531385843BEF102011B1
:1003F00023AAA19CB5B737650000011113058576C6
:1004000006CE22CC26CA4AC84EC652C456C2EF10E7
:10041000600E1305803EEF00705FB764000037097F
:100420000020938584771305893BEF10400D23AAA4
:10043000A19CB7690000B76A000083A7419D9DC3D6
:10044000376500001305457AEF10C00A6244F24098
:10045000D2444249B249224A924A1305803E05617C
:100460006F00D05A13854978EF10C0081305803EFD
:10047000EF00D05913854A79238E0180EF10800751
:100480001305803EEF009058938584771305893BD0
:10049000EF10E00623AAA19C4DB7797152CC376AC0
:1004A000000013050A7B06D622D426D24AD04ECEAF
:1004B00056CA5AC85EC662C4EF10C0031305803E18
:1004C000EF00D05437690000B70400209305897FFE
:1004D0001385843BEF10A00223AAA19CB7790000EA
:1004E00083A7419DADCF3775000013050582EF103E
:1004F00060001305803EEF0070513779000013054E
:100500004983EF00307F1305007DEF003050B7794D
:100510000000938549851385843BEF00507E23AA14
:10052000A19CB77A0000377B0000B77B000083A74F
:10053000419DADC33775000013054589EF00907BE1
:100540002254B25092540259F249624AD24A424B62
:10055000B24B224C1305803E45616F00304B138532
:10056000C980EF0030791305803EEF00304A130553
:100570000A7B238E0180EF00F0771305803EEF00A9
:10058000F0489305897F1385843BEF00507723AAB9
:10059000A19CB9B793854A861385843BEF003076DA
:1005A00023AAA19C05ED13854B87EF00B0741305BA
:1005B000007DEF00B045238E018013054983EF00D5
:1005C00070731305007DEF00704493854985138592
:1005D000843BEF00D07223AAA19C91BF13050B8826
:1005E000EF00507113054006EF00504213050A7BDF
:1005F000EF00507013054006EF0050417DBF011120
:1006000026CAB77400001385048A06CE22CC4AC8D5
:100610004EC652C456C2EF00F06D1305007DEF00C8
:10062000F03E37790000B70900209305C98D138586
:10063000893BEF00D06C23AAA19C377A000083A7E6
:10064000419D9DC3377500001305C58FEF00906A6B
:100650006244F240D2444249B249224A924A1305C6
:10066000803E05616F00903A1305CA8EEF009068D6
:100670001305803EEF0090391385048A238E018094
:10068000EF0050671305803EEF0050389305C98D89
:100690001385893BEF00B06623AAA19C4DB70111D9
:1006A00026CAB7640000AA8552C42A8A13858455D5
:1006B00006CE22CC4AC84EC656C25AC0EF003051B0
:1006C0001305803EEF00903437690000B709002021
:1006D0009305495E1385893BEF00706223AAA19CB4
:1006E000B76A000083A7419D85C36244F240D244AB
:1006F0004249B249224A924A024B3765000013052B
:10070000855F05616F00105F1385CA5EEF00905E24
:100710001305803EEF00902FD28513858455238EDC
:100720000180EF00D04A1305803EEF00302E930584
:10073000495E1385893BEF00905C23AAA19C5DB7BD
:1007400079711305803E06D622D426D24AD04ECEE9
:1007500052CC56CA5AC85EC662C466C26AC0B704E2
:100760000020EF00B02A1306004081451385843B2A
:100770001384C182238E0180B76A00005134376B25
:100780000000B76B0000376C0000B76C0000130A64
:10079000C4138387843B6389070C1305803EEF00F5
:1007A000F02693854A601385843BEF0050558147BE
:1007B00021C513062002930640063307F500030700
:1007C000C7006304C7006396D70AA29713054B625C
:1007D00023800700EF0010521305401FEF00102385
:1007E000A28513858B63EF00903E1305401FEF0039
:1007F000F021238E018039A03765000013050561C3
:10080000EF00504F93050C651385843BEF00304F8C
:100810003DE5376500001305C565EF00B04D9385D4
:100820008C6A1385843BEF00904D55E937650000D5
:100830001305856BEF00104CB7650000938585703C
:100840001385843BEF00B04B63160510376500003D
:1008500013058571EF00104A13060040814513858A
:10086000843B238E0180693A1305401FEF00101A64
:100870000DB7B305F4002380E50085073DBF13875E
:10088000C18281479305200213064006B306F50096
:100890008386E6006385B6000507639EC702376559
:1008A0000000A2971305456723860706EF009044D2
:1008B0001305401FEF009015376500009305C4062F
:1008C0001305C568EF00B0301305401FEF0010148A
:1008D000238E0180A9B78507A305D70645BF1387D7
:1008E000C18281479305C002130820021306400607
:1008F000B306F5008386E6006387B60063850601CC
:1009000005076395C70437650000A2971305056DB9
:10091000238C070CEF00103E130D840D9385C19CB2
:100920006A85EF10700E28D41305401FEF00100EDB
:1009300037650000EA851305856EEF005029130521
:10094000401FEF00B00C238E0180FDB58507A30B7F
:10095000D70C79BF1387C18281479305C002130862
:10096000200213064006B306F5008386F60063876F
:10097000B6006385060105076392C704376500006A
:10098000A29713050573238E0712EF00B0369385E7
:10099000C19C5285EF105007232AA40C1305401F59
:1009A000EF00D00637650000D28513058574EF008F
:1009B00010221305401FEF00700579BD8507A30DB8
:1009C000D71255B77300203001A04111094506C662
:1009D00022C46926EF00F000052F13054006EF0042
:1009E000F002EFF07F8CEFF05F8F31347D3401390E
:1009F000377500001305C5905D319933913321C9D6
:100A00002A84AA853775000013050591EF00301C74
:100A10002854EF00B0092A8637750000AE8613050A
:100A2000C591EF00D01A377500009305C406130571
:100A3000C592EF00D0190325440DEF0030072A8638
:100A400037750000AE861305C593EF005018B2400D
:100A50002244014541018280B71702409843B706FE
:100A6000FFF841111367170098C3D84337060200F7
:100A7000758FD8C39843B706F7FEFD16758F98C3D8
:100A80009843B706FCFFFD16758F98C3D843B70689
:100A900081FFFD16758FD8C39843B70600ECFD168D
:100AA000758F98C33707FF0098C723A6070202C4B3
:100AB00002C69843C166558F98C3B71602400567B2
:100AC0009C42F18F3EC6A24785073EC4B24781E7EC
:100AD000A247E397E7FEB71702409C431397E7004E
:100AE0006357070685473EC632478547631FF704AD
:100AF000B7170240D843B706C1FFFD16D8C3D84385
:100B0000D8C3D84313670740D8C3D843758FD8C319
:100B1000D843B7061D00558FD8C39843B7060001C8
:100B2000558F98C3984393166700E3DD06FED843BC
:100B3000B7160240719BD8C3D84313672700D8C3A8
:100B40002147DC42B18BE39EE7FE4101828002C671
:100B500061BF01A001A001A001A001A001A001A00E
:100B600001A001A001A001A001A001A001A001A07D
:100B700001A001A001A001A001A001A001A001A06D
:100B800001A001A001A001A001A001A001A001A05D
:100B900001A001A001A001A001A001A001A001A04D
:100BA00001A001A001A001A001A001A001A001A03D
:100BB00001A001A001A001A001A001A001A001A02D
:100BC00001A001A001A001A001A001A001A001A01D
:100BD00001A001A001A001A001A001A001A001A00D
:100BE00001A001A001A001A001A001A001A001A0FD
:100BF00001A001A001A001A001A001A001A001A0ED
:100C000001A001A001A001A001A001A001A001A0DC
:100C100097010020938101DD177100201301813EAF
:100C2000176500001305852197F5FF1F9385853D06
:100C30001386818163FAC5008322050023A0550035
:100C400011059105E3EAC5FE13858181938501DED7
:100C50006377B500232005001105E36DB5FEFD4265
:100C6000739002BCFD4273904280B7620000938291
:100C7000820873A0023097F2FFFF9382223C93E236
:100C8000320073905230EFF03FDD97020000938204
:100C900002D473901234730020309C4513F707017F
:100CA00013F8F70001C7D8413368E80083D5050081
:100CB00013F7F50F39C318418146854E3D4F930F09
:100CC000800293028004214E3396DE00B3F8C50003
:100CD000631116039398260033131F011343F3FF88
:100CE0003377E300B318180133E7E800639FF70593
:100CF00050C98506E39AC6FD18C11307F00F637546
:100D0000B70454412146854E3D4F930F8002930214
:100D10008004414EB398CE0033F715016392E80288
:100D20001317260001173313EF001343F3FFB376B5
:100D3000D3003317E800D98E639DF701232A1501EC
:100D40000506E319C6FD54C18280E39457FA10C921
:100D50004DB7E39757FE23281501DDB723ACA180DB
:100D600082809387818194430347050089E6834706
:100D70002500920731A8944305466391C604834732
:100D800025000346150092076314D60093E707F881
:100D9000B7E600E093F7F70FBA962380F640854652
:100DA000935757003397E6005441ADC69387070425
:100DB0008A07B7E600E0B69798C382808C438946DD
:100DC0006393D50283461500834725006365D600EB
:100DD0008A06B69779BF9386E6038A06B69793F795
:100DE000F70F920765B790438D46631ED600834682
:100DF0001500834725006364D6008606D9BF938615
:100E0000C6078606E1BF94439147E39AF6F8834705
:100E1000150085B79387070661BF371702405C430B
:100E20009146B18B6385D700A1466386D706B71775
:100E30007A00938707201CC1371602405C423707AF
:100E40000020130707009183BD8BBA9783C6070064
:100E50001C41B3D7D7005CC15442A1829D8ABA9687
:100E600083C60600B3D6D70014C55442AD829D8A0E
:100E7000369703470700B3D7E7005CC5584239836C
:100E80009376370013874180369703470700B3D71F
:100E9000E7021CC982805C4354434167C983F98ED1
:100EA00037F7FF1F0327C770BD8B8907131617017C
:100EB00063480600454601476392C702C94739A8FF
:100EC00009476389E7023D476388E7024147638832
:100ED000E702454601476393C700C14785E6B74629
:100EE000024083A60680C18A8DC6B7167A00938613
:100EF000062025A00147D9B70547B547C5B7014723
:100F0000BD47E9BFB7160240D4421396E600E35E40
:100F100006FCB7163D0093860690B387D7021CC126
:100F200001DF1C41858301BF99C5371702401C4F63
:100F30005D8D08CF8280B7170240984F1345F5FFAB
:100F4000798D88CF828099C5371702405C4F5D8DBF
:100F500048CF8280B7170240D84F1345F5FF798DEF
:100F6000C8CF828083560501F577FD17F58F83D6AC
:100F70006500397122DC06DED58F03D7C500231842
:100F8000F5008356C500FD779387379FF58F83D68D
:100F900045002A842EC6D58F83D68500D58F83D66B
:100FA000A500D58F2316F50083574501C207C183DD
:100FB00093F7F7CFD98F231AF5006808B93DB747E3
:100FC000014093870780B245631EF404A2578356FD
:100FD000C4006547B387E702C206C186984163D55E
:100FE000060406070356C4004206B3D7E7021307F8
:100FF00040064186B3D6E702B3F7E702920663578D
:1010000006028E0793872703B3D7E70213F777000B
:10101000B367D700C207C1832314F400F2506254AF
:1010200021618280925765B70A076DBF9207938747
:101030002703B3D7E702BD8BD58FE9BF81C983579B
:10104000C5000967D98F2316F50082800357C500B4
:10105000F977FD17F98FC5BF13F7F50F854715838E
:10106000B395B7006319F7009307C500984301CE05
:10107000D98D8CC38280894693074501E318D7FE3A
:1010800093070501E5B793C5F5FFF98DDDB793F536
:10109000F51F2312B5008280035545001375F51F17
:1010A0008280035505006D8D3335A000828013F7D3
:1010B000F50F85461583B397B6006313D702035720
:1010C000C500F98F0357050001454207418381CBD5
:1010D0000545A181B315B5006D8F3335E0008280E1
:1010E00089466315D70003570501E1BF0357450142
:1010F000C9BFA1818547B397B70093C7F7FFC20760
:10110000C1832310F500828039718545114506DEC3
:1011100022DC193D85453705020035359147231AF4
:10112000F100371401408D473ECC4C08E1471305D0
:1011300004803ECE9D36A147231AF1004C0891470A
:10114000130504803ECE913EF167374400409387FB
:1011500007200C103ED013050440B7070C003ED406
:1011600002D223160102FD3B930760132316F10000
:1011700085472307F100680085473EC8DD36130523
:101180000440054693055052C13D13050440854572
:101190007535F250625421618280411122C6374474
:1011A0000040930550521305044011371DC59305A7
:1011B000505213050440353F13050440F13D138799
:1011C000C18183460700B70700209387873BB69706
:1011D00085062380A7002300D70032444101730015
:1011E0002030B707002083A7071E37177A001307A0
:1011F0000720B3D7E70293F7F70F2380F182130795
:10120000803EB387E702239FF1808280B7F700E03A
:10121000D8438146799BD8C303D7E1813306A7021F
:1012200090CBD4CB98431367170398C3D843058B4F
:1012300075DF9843799B98C38280011126CAB74411
:10124000004022CC4AC84EC606CEAE89328901443F
:1012500093840440634A2401F24062444A85D244A4
:101260004249B24905618280930500042685153DF7
:1012700065DDB38789008385070026850504C205DF
:10128000C1813135C1BF138781801C43938601DE44
:101290003E95636BD500B78600209386068063E594
:1012A000A60008C33E858280FD57EDBF1357750128
:1012B0001377F70F41119307170022C426C21314A6
:1012C000950006C693F7E70F25809354F50185C76F
:1012D00093573400130707387604B2075207B183D7
:1012E0001395F401D98FC98FB240228522449244CC
:1012F000BE854101828005EB39C42285B128A9470A
:1013000063C6A7042D47098F930755013357E4009F
:101310003314F4009317C70013079038098FB18373
:101320001377F77F5DBF01CC13573400B707080070
:10133000D98FB2077604B1831307F07F79BF130703
:10134000F07F814759BF0147814741BF130755FFD0
:101350003317E40001447DBFC167637EF502930744
:10136000F00F1307000263ECA70097570000938764
:10137000275EAA9703C507003305A7408280218115
:10138000975700009387C75CAA9703C5070061477A
:101390003305A7408280B7070001636EF5006181C5
:1013A000975700009387C75AAA9703C5070021479C
:1013B0003305A740828041819757000093874759A2
:1013C000AA9703C5070041473305A74082803971BA
:1013D0003EDA2ED232D436D63AD842DC46DE938775
:1013E000C18022CC804326CA06CEAA8411C41C4CDC
:1013F00081E72285EF1060320C4454102686228546
:1014000036C6EF201012F2406244D244216182803D
:10141000011126CA4AC806CE22CC4EC652C4AA849E
:101420002E8909C51C4D99E3EF10202F9C4C804458
:1014300081E72685EF10602E975700009387076F8E
:10144000631DF402C0408357C400A18BB9C71C4878
:10145000A9C7FD59294A1C4483450900FD17A1ED80
:101460001CC463D107082286A9452685EF001068B1
:10147000FD576309F50229453DA097570000938762
:10148000E76C6314F40080447DBF97570000938796
:10149000E767E31AF4FAC0447DB7A2852685EF001A
:1014A000F07045D97D55F2406244D2444249B24978
:1014B000224A056182801CC4050963D70700184CC5
:1014C00063CBE700638945011C401387170018C0F0
:1014D0002380B70049B722862685EF003061E31CE0
:1014E00035F7C9B71C401387170018C02947238058
:1014F000E70051B79387C180AA85884311BF03478E
:10150000050083C7050001E791C30145828081473B
:1015100001A88347150013071500E5DB81473A85CD
:101520003387F5000347070075D3B306F50083C67C
:101530000600E390E6FE85072A87D5B7011122CC85
:101540002A872E843A85A28532C606CEEF20E03067
:1015500032462A88AE8805C651801374F47F9307FB
:10156000B006818F635DF000D2073707F03F014876
:101570003E974286BA86EF3030732A88AE88F240B2
:1015800062444285C6850561828035714AC92A89CF
:10159000368532D436C606CF22CD26CB4EC7EAD802
:1015A000EED62E8D52C556C35AC1DEDEE2DCE6DA37
:1015B00082C8EF10F01FAA8D084181440144EF203A
:1015C000706AB246AA89EAC635469305B002130589
:1015D000D00213080002A548B64703C70700636B93
:1015E000E608637F17095DC702C8364A9307000300
:1015F000814A03470A00631DF71283471A00130745
:1016000080056388E70013068007130700036397CC
:10161000C710C24736889808D4081756000013062A
:10162000E648EC004A85EF10803193797500AA8A6C
:101630006388090099476398F906050AD2C602C86B
:10164000A25781C7B64722571CC3C247A1CBB705D3
:101650000080A18DFA406A4426854A49DA44BA4995
:101660002A4A9A4A0A4BF65B665CD65C465DB65DD2
:101670000D6182806309B7006304A702E31607F7D0
:101680008507BEC691BF02C813871700BAC683C7B5
:101690001700A1FFA257EAC602C8CDF7A2855DBF19
:1016A00005473AC8D5B7464611CA93055003A8085E
:1016B000EF20803EC6454A85EF105037FD1991470F
:1016C00063EE370117570000130787388A09BA9964
:1016D00083A70900BA978287E644764493FA8A0082
:1016E000E3800AF6B70700805D8C99BFF6453704A2
:1016F000F0FF7D14B3F785005644E64413043443E9
:101700009315440133E4B700D1BF3704F07FF9B734
:10171000B705008013C4F5FFFD54C9B7B6479386DB
:101720001700B6C683C71700E38AE7FE91DB854A38
:10173000B64C014A814B014CA546A145A947364507
:10174000034B050013070BFD1376F70F63FDC6046B
:1017500083A50D004E86EF2010523DC1DA87E28D41
:101760008146014B0145130750066387E7001307C5
:10177000500481496399E71663960D00B3E756015B
:1017800091DB814D364D1307B00293071D00BEC695
:1017900083471D006382E70E1307D002014863935D
:1017A000E70E0548D9A863C98501B38BFB02BA9B34
:1017B0000505050CAAC661B7330AFA023A9ACDBFED
:1017C000364581464E95AAC683470500630D0C0633
:1017D000014BE28D138707FD25466376E60205453A
:1017E00059B7B647850613861700B2C683C71700D8
:1017F000E389E7FE1387F7FC2146E36AE61EB64C51
:10180000368B814D8146938707FD1387160085C768
:101810003A9B3385B6016E872148C1482946631734
:10182000A702850DB69DA14663CFE6022947B38B7B
:10183000EB020147BE9BB64793861700B6C683C727
:101840001700BA8641BF130700035DB79305170061
:101850006346E800B38BCB022E87D1B7E3CEB8FE48
:10186000330ACA02D5BFC1460147E3C6B6FDA94641
:10187000330ADA023E9AC1B7014893072D00BEC66B
:1018800083472D00138707FD25466367E60C130782
:1018900000036386E70A1387F7FC214681496364E6
:1018A000E604B648138707FD2543294EB64713863D
:1018B0001700B2C683C71700938507FD93F5F50F90
:1018C0006376B3089569330616419389F9E1A14817
:1018D000CE8563C6C800BA8963D3E500AE896304C8
:1018E0000800B309304163980D0CB3E6DA00E399C0
:1018F00006D4E31105DA1307E004638AE7066340C0
:10190000F70613079004E397E7D8975500009385EF
:10191000E518E800EF100051E30E05D6B6479755DD
:1019200000009385E517E800FD17BEC6EF10804F55
:1019300001E5B6478507BEC63704F07F11B3B64749
:1019400013861700B2C683C71700A1B73307C703B2
:10195000BA97138707FD99BFEAC6814969B713078C
:101960009006E384E7FA1307E006E395E7D297557C
:10197000000093856513E800EF10C04AE30C05D022
:10198000B64703C70700930780026313F702B00846
:10199000975500009385C512E800EF10A04B9547BE
:1019A0006318F500F6453704F07FE6444D8C49B9DD
:1019B0003704F8FF71B1B38A694163130C006E8C70
:1019C000C1476E8D63D3B701414D5E85EF40500432
:1019D000A547AA842E8463DCB70393077DFF139782
:1019E0003700975700009387E71BBA979043D4437B
:1019F000EF30902B2A845285AE84EF4070012A8606
:101A0000AE862285A685EF20103FAA842E84BD478E
:101A100063CDB709E3860AC263545007594763434D
:101A200057038E0A975700009387C717BE9A03A5DE
:101A30000A0083A54A002686A286EF30F026AA84F3
:101A40002E84FDBE130750023307B741634F57057D
:101A5000B38DB741175900001309C91493973D007E
:101A6000CA978843CC43B38DBA412686A2868E0D91
:101A7000EF309023CA9D03A60D0083A64D0075BFCD
:101A8000A95763C4FA02B3093B41139B3900975924
:101A9000000093892911DA9903A6090083A6490059
:101AA0002685A285EF30202859BF338DAD41569D44
:101AB0006357A0119377FD0099CF175700001307C4
:101AC000670E8E07BA978843CC432686A286EF30EE
:101AD000B01DAA842E84137D0DFF63080D0A9307A1
:101AE000401363D5A705014B814902C6814B93077B
:101AF00020022320F9003704F07F8144B247E381BC
:101B000007B4C6454A85EF106072DE854A85EF103E
:101B1000E071CE854A85EF106071B2454A85EF10BD
:101B2000E070DA854A85EF10607019BE135D4D4094
:101B30002685A2858147014A054897580000938869
:101B4000E8036346A80599C3AA842E8417570000AA
:101B50001307C70293173A00BA978843CC43370755
:101B6000B0FC22972686BA86EF3010143704F07F37
:101B7000B377B4003707A07CAA84E366F7F637078B
:101B8000907C637AF7027D14FD54014ADDA8137737
:101B90001D0011CF13173A00469710435443EF30FE
:101BA000B0108547054897580000938828FD050A1E
:101BB000135D1D4079B7370450032E94F9B7E3063F
:101BC0000DFC330DA0419377FD0099CF175700000E
:101BD000130747FD8E07BA979043D4432685A28505
:101BE000EF306014AA842E84135D4D40E30F0DF88E
:101BF000FD4763DDA701014B814902C6814B930775
:101C00002002814401442320F900CDBD137A0D0147
:101C100063040A00130AA0062685A28597570000D0
:101C2000938747EC014793761D0081CA9043D443C4
:101C30003EC6EF307007B2470547135D1D40A10750
:101C4000E3130DFE19C3AA842E8463050A02935779
:101C5000440113F7F77F9307B006998F635CF00098
:101C60007D476354F7221307400381446359F720EB
:101C700037047003014681462685A285EF30E06572
:101C80003DD95E87EE866286E6854A85EF106067FD
:101C90002AC6E30A05E493D7FA41B3093B41B3F7F7
:101CA000F9003ED056CE63D30A0002CEB247014BB4
:101CB0008149B1073ED8B7071000FD173ED6B2479D
:101CC0004A85CC43EF10C04DAA8BE30205E2B24730
:101CD000C2553105904B09060A06EF100041B808BD
:101CE000D4082286A6854A8526CA22CCEF109046C3
:101CF000AAC8E30E05DE85454A85EF108075AA89DE
:101D0000E30705DED64763C707180257724C338DC9
:101D1000E7006647B387474193066003BA97FD170C
:101D2000930D20C0998E63D6B7193387FD407D4649
:101D3000998E6346E616854DB397ED003ED2814CF1
:101D4000369CB30DDD00529CEA8763D3AD01EE876C
:101D50006353FC00E2876358F000B38DFD40330C01
:101D6000FC40330DFD4082576358F002CE853E861D
:101D70004A85EF101004AA89E30B05D64646AA85CA
:101D80004A85EF10C06E2ADAE30305D6C6454A85B8
:101D9000EF10C049D257BEC8634FB011635A50010B
:101DA0007246DE854A85EF10D000AA8BE30105D488
:101DB000635A8001DE8562864A85EF10100BAA8B7C
:101DC000E30705D2635AA001CE856A864A85EF10E3
:101DD000D009AA89E30D05D0C6455E864A85EF1075
:101DE000D0182A8BE30505D0032CC500CE85232609
:101DF0000500EF1070146359050C336C9C006311DF
:101E00000C129317C400639D0710B707F07FE18F92
:101E10003707B0066376F71083274B0191E7032756
:101E20000B01854763DEE70EDA8505464A85EF102C
:101E3000D003CE852A8BEF1030106353A00E630CB5
:101E40000A10B707F07FE18F3707B0066345F71038
:101E500037077003E355F7DA0147B707503926858E
:101E6000A2853A86BE86EF3020642E84C98DAA846E
:101E7000E39905C8930720022320F90059B181177F
:101E80007D57B317F7007D8CF5B37D57B317F70077
:101E9000FD8CCDB37247025D330CF7409DBD930CB2
:101EA00020BEB387FC40854CB39CFC0085473ED2E6
:101EB00041BD814CE5BFC6456E864A85EF10E07A8C
:101EC000AAC8E31D05EC25B169E9370710007D17A5
:101ED000B377E40063090C046399E7047D5763005A
:101EE0000A02B707F07FE18FB706A00663E9F600A4
:101EF000D1839306B006B387F6403317F700639695
:101F0000E402B707F07FFD176315F400FD57E38087
:101F1000F4BEB705F07FE18D370410002E948144A4
:101F2000E31C0AF2F9BEC58F99DB63820C04B3FC93
:101F30008C00E3870CFE52862685A285630F0C0277
:101F4000EFF0CFDF2A86AE865245E245EF20A06A49
:101F5000AA842E84F1B7B705F07FE18D3704F0FF36
:101F6000A295370410007D144D8CFD5455BF925737
:101F7000B3FD9700E3860DFA7DBFEFF02FDC2A86D4
:101F8000AE865245E245EF30B01D01468146AA8437
:101F90002E84EF30803449F59DB1CE855A85EF10FF
:101FA000B028975700009387E7AC9043D4432A8D1D
:101FB000AE8DEF3000446342A01063010C0A814DE6
:101FC000370DF03F0147B707F03FB706F07FB37C0E
:101FD000D400B706E07F639FDC166AD2370DB0FCF1
:101FE000229D2685EA853EDE3ADC6EDAEF10F006A9
:101FF000D25812582A86AE864685C285EF30C04A2E
:102000002686EA86EF20205FAA843705F07F3376A4
:10201000B500B706A07C6257F2576365D60C6247DD
:102020009307F5FF6396E7005247FD57E381E7AC5E
:10203000B707F07F1384F7FFFD54C6454A85EF10BC
:10204000E01EDE854A85EF10601ECE854A85EF10C2
:10205000E01DDA854A85EF10601D95B1B1E0B257F9
:10206000E18FA1E797570000938747A09043D4439F
:102070006A85EE85EF30E037634D05029757000023
:102080009387479E9043D4436A85EE85EF30C041E5
:102090002A87AE87370D0080BA8D334DFD0035B7E6
:1020A00085476394F400E30C04B4814D370DF0BF11
:1020B00011BF0147B707E03FF1BF97570000938773
:1020C000679A9043D4436A85EE85EF30E03D2A87D6
:1020D000AE872E8D63160C00370D0080334DBD008A
:1020E000AA8DE5B5370450032E94E3180AF4B70619
:1020F000F07FE18EE393DCF4BE853A853A8DBE8CA9
:10210000EF30B07DEF40A0092A86AE866A85E6856D
:10211000EF301005B2572A8DAE8DE18FC58F33ECAD
:102120008701630B0C0A975700009387A79590438C
:10213000D443EF30002CE346059C9757000093876B
:10214000E7949043D4436A85EE85EF30A01FE356B1
:10215000A0EE45BA630D0A04B706A00663E996052A
:1021600097560000938686919042D4423A85BE8568
:102170003ADA3ED2EF30E027925752576344A0023A
:102180003A85BE85EF30F07B11E10545EF40400810
:102190002A87AE872E8D63160C00370D0080334DD5
:1021A000BD00AA8DB705B0062E9D330D9D41524549
:1021B000E2453EDA3AD2EF10406A2A86AE866E8554
:1021C000EA85EF30602E5246E246EF20C042AA84F4
:1021D0002E84D257125711BF975700009387878BD1
:1021E0009043D443EF30E020E35905E419BA1307D4
:1021F00050066387E7001307500405456397E7EE31
:10220000014B05456FF08FD701114AC81389C18072
:102210008327090006CE22CC945326CA4EC652C448
:102220005AC25EC02E8689E697E6FF1F938686E433
:10223000AA853E85EFF06FB5AA842E842A86AE86E5
:102240002685A285EF30B06509CD6244F240D244C4
:102250004249B249224A124B824B014505616F2027
:102260000014A2852685EF40A00D975700009387A4
:102270006786B709008083AB070093C9F9FF337BFA
:1022800035012A8ADE855A85EF40C00729E5DE85BB
:102290005A85EF30707E6350A004975700009387F3
:1022A000E78303AB070083AB4700337434015A86DE
:1022B000DE862685A285EF30905E09E95A86DE86A5
:1022C0002685A285EF30E0126347A000832709002E
:1022D0001307200298C3F24062445285D244424917
:1022E000B249224A124B824B05618280011122CCF5
:1022F00026CA4AC806CE4EC6AA842E89328401C593
:102300001C4D91E319299757000093872782631981
:10231000F406C0401C4C1CC48357C400A18BC9C325
:102320001C48BDCF1C4808409379F90F1379F90F69
:102330001D8D5C486346F500A28526857D2C2DE524
:102340001C440505FD171CC41C401387170018C04A
:10235000238037015C486389A7008357C400858BBD
:1023600081CBA9476316F900A285268579240DED56
:10237000F24062444A85D2444249B24905618280B2
:10238000974700009387877C6314F400804459B713
:102390009747000093878777E31EF4F6C0449DBFFC
:1023A000A285268521203DDD7D59D9B7411193872E
:1023B000C18026C2844322C44AC006C62A892E840C
:1023C00089C49C4C99E32685892E97470000938702
:1023D000E775631CF402C0400317C400931707019C
:1023E000C18393F68700BDEE93F607019DEEA547E6
:1023F0002320F900136707042316E4007D55B2403B
:102400002244924402494101828097470000938709
:10241000E7736314F4008044C1B7974700009387C3
:10242000E76EE31BF4FAC04445BF918B95C74C5847
:1024300091C9930744046385F5004A85EF10E06F66
:10244000232A04028357C4002322040093F7B7FD14
:102450002316F4001C481CC08357C40093E7870070
:102460002316F4001C4889EF8357C400130700208B
:1024700093F707286386E700A2854A85EF00503965
:102480008357C40013F7170005C75C4823240400D2
:10249000B307F0401CCC1C480145B5F38317C400BA
:1024A00013F7070829DF93E707042316F400B9B7E9
:1024B000898B014791E3584818C4F1BF83D7C50001
:1024C000011122CC26CA06CE4AC84EC613F7870091
:1024D000AA842E8479EFD841634DE000B841634A65
:1024E000E0000145F2406244D2444249B2490561EC
:1024F000828058547DD703A904009396370123A006
:10250000040063DE060670488357C400918B99C7A8
:102510005C401D8E5C5899C33C401D8E5C540C5031
:10252000814626858297FD570357C400631DF50039
:102530009440F54763E9D706B70740208507B3D72E
:10254000D700858BADC31C48232204001CC0931701
:10255000370163D80700FD576314F5009C4091E3F1
:1025600068C84C5823A02401ADDD9307440463855B
:10257000F5002685EF10605C232A04029DB70C50FD
:102580000146854626850297FD572A86E31EF5F605
:102590009C40BDDB75476385E70059476394E704BA
:1025A00023A024013DBF136707042316E4007D55D3
:1025B00015BF83A90501E38609F203A905008D8BE8
:1025C00023A0350133093941014791E3D84918C4A3
:1025D000E35920F11C540C50CA864E8626858297FA
:1025E0006349A0008357C40093E707042316F4004F
:1025F0007DBFAA993309A940E1BF9C49B9CF011118
:1026000022CC06CE2A8411C51C4D81E72EC631226C
:10261000B2459747000093876751639BF5004C4094
:102620008397C50095C722856244F240056179B55C
:1026300097470000938787516394F5000C44CDB70A
:10264000974700009387874CE39CF5FC4C44C9BF37
:10265000F24062440145056182800145828041115A
:1026600022C406C62A842316B5002317C5002320DA
:102670000500232205002324050023220506232824
:102680000500232A0500232C05002146814513055A
:10269000C505EFD0FFB697270000938747D15CD0E0
:1026A000972700009387A7D31CD497270000938710
:1026B000E7D75CD4972700009387A7DA00D01CD80F
:1026C000B24022444101828097050000938525F3A2
:1026D000B1A2411126C2130680069384F5FFB3848C
:1026E000C4024AC02E8922C406C693854407EF104F
:1026F000404F2A8401CD23200500232225013105E6
:1027000008C4138684068145EFD09FAF2285B2406E
:10271000224492440249410182801C4DADE34111A3
:1027200006C622C497070000938747FA1CD59387F3
:1027300001819C4323240504232605042328050442
:102740006314F50085471CCD2A841D2848C02285C6
:10275000052808C422852D2048C4484001469145DB
:10276000FD3D08440546A545DD3D48440946C945AB
:10277000FD3585471CCCB2402244410182808280D5
:1027800041119387018126C284434AC006C69C4CEE
:1027900022C42A8999E32685493793848404804496
:1027A000DC40FD1763D607009C40B9CF8440C5BF0D
:1027B0000317C40039E7C1778507232204062320C5
:1027C000040023220400232404005CC42328040002
:1027D000232A0400232C0400214681451305C40547
:1027E000EFD01FA2232A0402232C04022324040472
:1027F000232604042285B240224492440249410126
:1028000082801304840671BF91454A85D93588C0FA
:1028100051FDB1472320F9000144E9BF797122D469
:102820004AD052CC56CA5AC85EC606D626D24ECE1A
:102830002A8AAE8A130485040149054BFD5B09EC25
:10284000B25022544A8592540259F249624AD24AFD
:10285000424BB24B45618280044483294400FD19F8
:1028600063D409000040E1BF83D7C400637BFB0051
:102870008397E40063877701A6855285829A33693E
:10288000A90093848406E1BF10499306450113D73C
:102890005540B6876356C7020A060A07FD89369671
:1028A0003697B9C9130847001843130300023303CE
:1028B000B3403357B700636EC80098C311C3910784
:1028C0003387D740098718C96394D700232A0500A6
:1028D00082808328080091071108B398680033E7C5
:1028E000E80023AEE7FE0327C8FFE1B71107832501
:1028F000C7FF910723AEB7FEE36AC7FED1B79307C0
:1029000005FD93F7F70F25476367F70001159377E8
:10291000F50F3E8582809307F5F993F7F70F9546FB
:1029200063E5F600130595FBDDB71307F5FB137799
:10293000F70F8147E3EFE6FC130595FDC9BF1D7155
:10294000D6C2AA8A428536C63AC286CECAC8D2C480
:10295000DAC05EDE3E8B6ED63289AE8DA2CCA6CAC0
:10296000CEC662DC66DA6AD8A125832B05005E85B7
:10297000EF10502FB387AB0083A60D0083C7F7FF7E
:102980007957158F3EC82A8A93872600930600033D
:102990003306F700BE84850703C5F7FF32C4E30999
:1029A000D5FEB13F631905105286DE852685EF10EE
:1029B000902C63170510338C440103450C008137BC
:1029C00063010510E2849307000303C50400630A52
:1029D000F5003537854793391500E28C3EC4268CC7
:1029E00021A08504DDB7050C03450C00093F65FDFA
:1029F0005286DE856285EF10102809E9639B0C0082
:102A0000529CE28C03450C00DD3D4DE90144638599
:102A10000C0033848C410A0483470C001307000523
:102A20006387E70013060007E28C639EC7048347B1
:102A30001C001307B0026389E7081307D0026389FB
:102A4000E708930C1C00014D03C50C004D3D930796
:102A5000F5FF93F7F70FE14563E3F508930705FFEB
:102A6000850C03C50C003ECA593D9305F5FF93F54F
:102A7000F50F6148D247A948637EB80463040D008E
:102A8000B307F0403E9423A09D01638C0904A24744
:102A9000814491E39944F640664426854649D644EC
:102AA000B649264A964A064BF25B625CD25C425DAE
:102AB000B25D256182808149814C15B7050C99B7BB
:102AC000268C0144854989BF014D930C2C00ADBF74
:102AD000054DE5BFB3871703AA97C11751B7E28C1D
:102AE0005DB7B3079C40FD1781451D476343F70A57
:102AF00056857D25054693094501B3074641AA8DB4
:102B00004E8D8148814C3ECA63E8840913054D000F
:102B100033053541098523209D0123A8AD00931479
:102B200055006685EF00F007832B0900898C63D67A
:102B30009B0CB3847441A6856E85EF0050792A8A78
:102B400005C91386F4FF935656408A06CE969442E2
:102B500005473317C700758F054A19CB6359CA005B
:102B60009385E4FF6E85EF0090760D4A11E1094AE6
:102B7000A6856E85113B269403278900635E87082E
:102B8000EE855685652592479304300A23A00700F9
:102B900019B78505858799BF9307FCFF3EC4034697
:102BA000FCFFC2476308F602930700026397F80030
:102BB00023209D018148110D814C0345FCFF46CC2B
:102BC0003D3BE2483D89224333151501B3ECAC008F
:102BD000910815A052479307FCFF3383E700E36594
:102BE00093FC1A855286DE8546CE1ACCEF10B008CB
:102BF0006243F24855F91A8C01BF014AE3DE74F7CB
:102C0000B3849B40EE8526865685EF001026AA8D5C
:102C1000058C930945018DB7032749006355E40EE0
:102C200033048740634574070327C9008946630A54
:102C3000D7048D46630AD7048546631BD702639980
:102C40008B026391EB0203274900B24793042006ED
:102C500098C30547924723A8ED0023A0E90023A0CD
:102C6000B70115BD9385FBFF6E85EF00506661FDD2
:102C7000EE855685652B92479304000523A0070037
:102C800019BDE3170BFEC1B7E31F0BFAD5B79304C9
:102C9000F4FF63180A0691C4A6856E85EF003063C1
:102CA0002A8A13D754400A074E9718438545B3958F
:102CB0009500F98D99C1136A2A00A2856E85B38BA0
:102CC0008B40EFF07FBC032449008944630B0A0862
:102CD0000327C9008946630AD7028D46630AD702D3
:102CE0008546631DD70013772A0009CB03A7090087
:102CF000336AEA00137A1A00631E0A0093E404019F
:102D00008DA0054A79BF8544D1B70547330B67418C
:102D1000E3060BFE83A90D0113874D01FD55139AA0
:102D200029003306470114436383B604850614C3A0
:102D3000894613874D016393D40883260900FD1645
:102D4000639F760193D65B408A0636971843854683
:102D5000B39B7601B3FBEB0063830B00854493E4E4
:102D60000402924723A0B701B24780C32DB31107D5
:102D7000232E07FEE369C7FA03A78D0063C4E902A7
:102D800083A54D0056858505212903A60D01938550
:102D9000CD002A8B09060A063105812EEE8556855F
:102DA0007121DA8D03A70D019306170011070A0799
:102DB00023A8DD006E97854654C39DBF83A60D01F1
:102DC00063DCD90085456E85EFF01FAC03278900D1
:102DD0000504E35587F86DB393FBFB018544E3805D
:102DE0000BF852970325C7FF6D2B13070002B30B97
:102DF0007741E34975FDA5B7A1473386C7400A0669
:102E000093060002918E5C41184111053398D7005A
:102E100033670701B3D7C700232EE5FE1CC1E36467
:102E2000B5FE82801C416548850503C6F5FF850710
:102E300001E61CC10545828003C707009306F7FB26
:102E400093F6F60F6364D80013070702E30EC7FC7E
:102E5000014582805D7152DC03AA0500A6C24EDEE8
:102E600093545A405AD88A0486C6A2C4CAC056DAB5
:102E70005ED662D466D26AD06ECE137AFA012A8BFD
:102E8000B289B29463030A00910483270B0013896B
:102E9000C4FF23AE04FECA8D4A840146814A814B99
:102EA000214C930C00021D4D83C617001387170099
:102EB0003AC0A9CA368532C63EC436C2EFF03FA436
:102EC000324649E59246A24763E7DC0263D37A03C0
:102ED0006377B4016345CD00EE852285313F2146FD
:102EE00063F98900930DC4FF232E04FEDE8A6E84ED
:102EF0000146824755BF93059002639BB608890738
:102F00002320FB0063860B086378B4019D4763C5EB
:102F1000C700EE852285CD3563FA8904CE8711047A
:102F20000327C4FF910723AEE7FEE37A89FE9107EA
:102F300023AE07FEE37DF9FE8327090091E76317BF
:102F4000390585472320F9001545A1A00506850B05
:102F50006358CC00E3FF89F8232E04FE0546711464
:102F60001C403D899207C98F1CC061B7E3060AFC6B
:102F700093070002B38747417D5AB357FA0003AA6B
:102F8000C4FF337AFA0023AE44FF7DB771196DB7E1
:102F90001145B640264496440649F259625AD25A1F
:102FA000425BB25B225C925C025DF24D61618280A9
:102FB0001305050F82801971A6DAAE848395E500AA
:102FC000A2DC86DE328463DC050083D7C40023A044
:102FD000060093F7070885E7930700401DA0300817
:102FE00036C6EF108053B246E34105FE7247BD6717
:102FF000F98F7977BA9793B717009CC2F1BF9307FF
:1030000000041CC0F6506654D65401450961828004
:1030100083D7C500011122CC06CE26CA4AC8898BA7
:103020002E8489CF930774041CC01CC885475CC8D4
:10303000F2406244D244424905618280740030000B
:10304000AA84953FA2452A892685EF00903901ED93
:103050008317C40013F7072061FFF19B93E7270054
:103060002316F400C1B797F7FFFF938727669CD418
:103070008357C40008C008C893E707082316F40064
:10308000A2475CC8B24791CF8315E4002685EF10B4
:10309000804B01C98357C400F19B93E717002316A7
:1030A000F4008357C4003369F9002316240149B79B
:1030B00085E141116C00014511CA795581CA8347E8
:1030C00006009CC1034506003335A0004101828003
:1030D000014519CA795589CA834706009CC1034531
:1030E00006003335A00082808280B3C7A5008D8B97
:1030F0003307C50081E78D4763EEC700AA87637079
:10310000E50A83C6050085078505A38FD7FEE3EA98
:10311000E7FE828093763500AA8791CA83C60500B0
:1031200085078505A38FD7FE93F63700FDB7937605
:10313000C7FF138606FE63F0C70683A3050083A2BC
:10314000450083AF850003AFC50083AE050103AE24
:10315000450103A3850183A8C5019385450223A0EA
:10316000770003A8C5FF23A2570023A4F70123A6D5
:10317000E70123A8D70123AAC70123AC670023AE28
:1031800017019387470223AE07FF75B79041910758
:10319000910523AEC7FEE3EBD7FEE3E4E7F68280BA
:1031A0005C51411122C44AC006C626C22A842E8917
:1031B00089EF4145EF10A03E48D02322050023248B
:1031C000050023200500232605004450DC449DC74C
:1031D0005850931729005847BA97884329E18544E6
:1031E000B3942401138654000A0685452285EF0016
:1031F000701219CD2322250104C525A01306100243
:1032000091452285EF0010115C50C8C4DC47E9F3FA
:103210000145B24022449244024941018280184152
:1032200098C32328050023260500E5B75C5101114A
:1032300022CC06CE2A8499EF41452EC6EF102036C7
:10324000B24548D023220500232405002320050091
:103250002326050091C95450DC4113972700DC4612
:10326000BA97984398C18CC3F2406244056182804A
:1032700079714ECEAA89416522D426D22E84844902
:1032800006D64AD0D10501487D159C419105050817
:1032900033F7A7003307C702C183B387C702369746
:1032A00093560701698FB69793D60701C207BA975D
:1032B00023AEF5FEE34B98FC8DCE1C4463C4F402B0
:1032C0004C404E8536C68505E13D10489305C40047
:1032D0002A8909060A063105093DA2854E85B937B6
:1032E000B2464A84938744008A07A297D4C38504D0
:1032F00004C82285B250225492540259F2494561C1
:10330000828079719387860052CC368AA54622D472
:1033100026D24ECE2E84B3C7D70206D64AD056CA7E
:10332000AA89B2848546814563CAF6044E853AC6A9
:10333000853D324785471CC958C9A54763D39704C3
:10334000930A94005689269405098346F9FFAA85B5
:103350002946938606FD4E85213FE31789FE138497
:1033600084FF5694268963414903B25022549254F3
:103370000259F249624AD24A456182808606850531
:1033800065B72904A544F9BFB3079940A29783C63E
:103390000700AA852946938606FD4E85D13D05097D
:1033A000D9B74177698FAA87014519E3C20741451B
:1033B000370700FF7D8F19E32105A207370700F0CB
:1033C0007D8F19E311059207370700C07D8F19E340
:1033D00009058A0763C907001397170005056344A9
:1033E00007001305000282801C4113F777000DC30C
:1033F00093F61700014799E613F7270011C7858355
:103400001CC105473A85828089831CC10947DDBFFD
:1034100093960701C182014799E2C183414793F620
:10342000F70F99E22107A18393F6F70099E21107BC
:10343000918393F6370099E20907898393F6170081
:1034400081E68583050799C31CC16DBF1307000280
:1034500055BF411122C42E84854506C6EFF05FD4C6
:1034600040C9B2402244054718C9410182809849A9
:103470001C4A797126D206D622D44AD04ECEAE84CA
:103480006354F700B2842E8683A904010329060140
:103490009C44CC403384290163D38700850532C620
:1034A000EFF01FD032461308450113132400429356
:1034B000C28763ED67029385440193982900510602
:1034C000131E2900C166AE98329EFD166364C603C2
:1034D00063568000711383270300F1CB00C9B250FB
:1034E000225492540259F2494561828023A0070078
:1034F0009107C1B7832F0600B3FFDF00638A0F0473
:10350000428FAE82814403A7020083230F00110F74
:10351000B37ED700B38EFE03B3F7D30093D303017A
:103520009102BE9E93570701B387F703A69E13D758
:103530000E01B3FEDE009E97BA9793D40701C2072F
:10354000B3E7D701232EFFFEE3EF12FB23209F00FA
:1035500083522600638A020483270800C28E2E8FBE
:10356000814F03270F0083D32E00F58F758F33070C
:103570005702910E110F1E977E97931F0701B3E715
:10358000FF0023AEFEFE8357EFFF83AF0E004183A3
:10359000B3875702B3FFDF00FE97BA9793DF0701A7
:1035A000E3611FFD23A0FE001106110805B77D147D
:1035B00005B7011126CA4AC84EC606CE22CC52C44F
:1035C000937736002A89B284AE8989CFFD171737E1
:1035D00000001307A7698A07BA9790438146EFF066
:1035E0003FC9AA898984ADC88327490291EF414523
:1035F000EF00F07A2322A9022322050023240500EC
:103600002320050023260500032A490203248A00FB
:1036100011E8930510274A852D3D2324AA002A840A
:103620002320050093F7140099CBCE8522864A8586
:103630003D3D2A8ACE854A85EFF05FBFD2898584D9
:1036400081CC084001E92286A2854A850D3508C053
:10365000232005002A84F9B7F24062444E85D24403
:103660004249B249224A05618280797126D2AE84EC
:103670004ECE83A9040122D4CC41135456409C441D
:10368000A2994AD056CA06D652CCAA8A13891900E2
:1036900063C42709568532C6EFF09FB032469307C0
:1036A00045012A8ABE8601479106634A870663530D
:1036B0000400014494480A04338787008A069387EC
:1036C00044017D8ABE9625C2130800023308C84013
:1036D00081458843110791073315C500C98D232EF5
:1036E000B7FE83A5C7FFB3D50501E3E4D7FE0CC33E
:1036F00099C1138929007D1923282A015685A68599
:10370000EFF0DFB2B2502254528592540259F2497E
:10371000624AD24A456182808505860795BF23AEFD
:1037200006FE050751B7910703A6C7FF1107232E11
:10373000C7FEE3EAD7FEC1B71C499849998F8DE3CC
:103740000A075105D105B306E500BA95F116F11542
:10375000904298416308E600FD576363E6008547A1
:103760003E858280E364D5FEE5BF011126CAAE84A2
:103770004EC6B285AA89268522CC06CE4AC8328496
:10378000653F05E181454E85EFF09FA185471CC946
:10379000232A0500F2406244D2444249B2490561FD
:1037A0008280054963460500A28701492684BE84BC
:1037B0004C404E85EFF0DF9E0323040183A80401F3
:1037C00013064401131E2300138844018A08C16EA6
:1037D00023262501329EC29893064501014FFD1E06
:1037E0001842832F08009106B375D701B3F7DF01A4
:1037F000FA959D8D93DF0F0193570701B387F7412A
:1038000013D70541BA9713DF0741B3F5D501C207B6
:10381000CD8F110823AEF6FE1106E36318FDC165D6
:10382000FD156368C601F1169C4295C72328650003
:1038300095B71C429106110633F7B7007A971358D3
:103840000741C183C29713DF07416D8FC207D98F2C
:1038500023AEF6FEF9B77D13F9B7B707F07FFD8DFC
:10386000B707C0FCBE956355B00081473E85828096
:10387000B305B04093D745414D476347F700B705BF
:103880000800B3D5F540D5B71387C7FEF946814583
:103890008547E3CDE6FCB7070080B3D7E700F9B76B
:1038A000797126D204494ECE930945018A04CE94FB
:1038B00022D403A4C4FF4AD02EC6228506D6EFF038
:1038C0005FAEB24593070002898F9CC1A947138957
:1038D000C4FF63CDA702AD47898F3707F03FB356CA
:1038E000F400D98E014763F4290103A784FF55052D
:1038F0003315A400B357F700C98FB2502254925425
:103900000259F2493E85B68545618280814763F65A
:10391000290183A784FF138984FF551505C913075F
:1039200000023306A74033D7C7003314A400598CD4
:10393000B706F03FC18E014763F429010327C9FF91
:10394000B397A7003357C700D98F45BFB706F03FDD
:10395000C18E65B7797122D42E84854526D24AD08E
:10396000B2844ECE52CC3A8906D6368AEFF05F83C7
:10397000370710009307F7FFE58FD18093F4F47FAA
:10398000AA89B5E03EC62DC4280022C4EFF0DFA509
:10399000A24621CD324793070002898FB317F70063
:1039A000D58F3357A70023AAF9003AC6324423AC77
:1039B000890033348000050423A88900B9C49384A6
:1039C000D4BCAA949307500323209A003385A740C0
:1039D0002320A900B25022544E8592540259F24934
:1039E000624A45618280D98F71BF23AAD9007DBF09
:1039F0006800EFF07F9FB24713050502054423AA34
:103A0000F900854723A8F90055BF93172400130533
:103A1000E5BCCE972320AA00884B1604EFF07F98D0
:103A2000098C232089007DB779714AD02E892C001A
:103A300006D622D426D24ECE52CC2A8A9535AA89D1
:103A4000AE842E844A856C00A13D8327090103279B
:103A50000A01A2461D8FB24716079D8EB307D700F5
:103A60006355F002D2072E86338497003287A285F1
:103A70002A86BA864E85EF10002BB25022549254FB
:103A80000259F249624A456182803707F0FFB387E5
:103A9000E7023386B700D9BF9387F5FF184A9587A9
:103AA00085078A07930646010A07AA97369763E5B2
:103AB000E600636AF5008280910603A6C6FF110541
:103AC000232EC5FEEDB71105232E05FEDDB71449E3
:103AD00093D755401307450163C7F60263DFD7004C
:103AE000FD8981CD93962700BA9690420545B3563D
:103AF000B600B395B600631EB6008A07BA97636630
:103B0000F70001458280B687CDBFF1179443E5DA0F
:103B1000054582803386C502011122CC06CEB285CE
:103B200032C6C1202A8409C532468145EFC04FED17
:103B30002285F240624405618280DDC183A7C5FF12
:103B4000411122C406C626C21384C5FF63D30700F1
:103B50003E94AA84EF001027938741829C4381EF13
:103B60002322040023A281822244B240268592446B
:103B700041016F005025637EF40014403307D400E8
:103B80006396E7009843DC43369718C05CC0D9BF02
:103B9000BA87D84319C3E37DE4FE94433386D70044
:103BA000631F86001040B29694C33386D700E31D8E
:103BB000C7FA10435843B29694C3D8C375B7637518
:103BC000C400B1479CC04DB71040B306C400631693
:103BD000D70014435843B29614C058C0C0C369B745
:103BE0008280011126CA93843500F19806CE22CC3A
:103BF0004AC84EC6A104B14763F3F404B14463E27A
:103C0000B4042A89EF00101C9387418298433A84B8
:103C100039E0938781829C4391E781454A85992FBA
:103C200023A4A182A6854A85B127FD5963193507CA
:103C3000B1472320F9004A85EF00F01829A0E3D00E
:103C400004FCB1471CC10145F2406244D2444249E0
:103C5000B249056182801C40858F63CF0702AD4663
:103C600063F6F6001CC03E9404C031A05C406313B0
:103C7000870223A2F1824A85EF00F0141305B400F5
:103C80009307440061993307F5405DDF3A94898FCB
:103C90001CC05DBF5CC3C5B72287404095BF1304FD
:103CA00035007198E30285FCB305A4404A85D92507
:103CB000E31C35FBB5BF1C46FD171CC663DA0700C5
:103CC000184E63C5E700A9476394F5006FE00FE263
:103CD0001C422E851387170018C22380B7008280EC
:103CE000011122CC26CA4AC84EC652C406CE2A8921
:103CF000AE893284B304D6007D5A63149400014522
:103D000009A8834504004E864A8575370504E316E5
:103D100045FFF2406244D2444249B249224A056119
:103D20008280357122CD26CB4AC94EC706CF52C5F7
:103D300056C35AC1DEDEE2DCE6DAAA89AE843289F5
:103D4000368409C51C4D99E3EFE03F9D973700008D
:103D50009387C7DD639CF40C83A4490083D7C40018
:103D6000A18BFDC79C48EDC793070002A304F10295
:103D70009307000302D22305F10222C6930B5002DF
:103D8000973A0000938A4AEF054C294B4A848347AF
:103D9000040099C36391770FB30C2441638D0C0029
:103DA000E6864A86A6854E85253FFD576307F51EA4
:103DB0009256E69636D2834704006380071EFD576D
:103DC0001309140002C802CE3ECA02CCA3090104A2
:103DD00082D48345090015465685EF00007D130403
:103DE0001900C24759E913F7070109C71307000271
:103DF000A309E10413F7870009C71307B002A30959
:103E0000E104834609001307A0026380E608F24735
:103E10004A8481462546034704009305140013078E
:103E200007FD6379E60AB5CA3ECE85A8973700003C
:103E30009387C7D16395F40083A4890005B79737AA
:103E400000009387A7CCE39BF4F083A4C90039B7A3
:103E5000A6854E85EFE08FD501D97D55FA406A449D
:103E6000DA444A49BA492A4A9A4A0A4BF65B665CDE
:103E7000D65C0D618280050419BF330555413315A9
:103E8000AC00C98F3EC82289A9B7324793064700C4
:103E9000184336C6634907023ACE03470400930726
:103EA000E002631FF704034714009307A002631B9B
:103EB000F702B2470904138747009C433AC663C11F
:103EC00007023ECA35A83307E04093E727003ACE01
:103ED0003EC8E1B7B387670385462E84BA9725BFEE
:103EE000FD57C5B7050402CA8146814725460347E9
:103EF000040093051400130707FD6376E606F1F24C
:103F0000834504000D4617350000130565D7712D54
:103F100011CD973700009387A7D61D8D9307000416
:103F2000B397A700424505045D8D2AC88345040068
:103F30001946173500001305E5D4130914002304AE
:103F4000B102A5253DC197C7FFFF9387A70B95E752
:103F50004247B2471377071009CF91073EC69257E1
:103F6000D2973ED225B5B387670385462E84BA978C
:103F7000BDBF9D07E19BA107D5B77800970600005C
:103F8000938646D626860C084E8597000000E700EB
:103F90000000FD572A8AE314F5FC83D7C40093F789
:103FA0000704E39C07EA125555BD78009706000008
:103FB000938646D326860C084E85012AD9BF79718F
:103FC00056CA9C49BA8A984522D426D24ECE52CCA3
:103FD00006D64AD05AC85EC6AA892E84B284368ACA
:103FE00063D3E700BA879CC00347340419C385072D
:103FF0009CC01C4093F7070281C79C4089079CC066
:104000000329040013796900631A0900130B940152
:10401000FD5B5C449840998F634CF9041C408346D7
:10402000340493F70702B336D000A5EB130634042B
:10403000D2854E85829AFD576303F5041C401146D4
:104040009840998B544481446397C700B384E640F9
:1040500063D3040081441C4418486354F700998FCB
:10406000BE94014969047D5B63982405014509A854
:1040700085465A86D2854E85829A631E75017D5586
:10408000B250225492540259F249624AD24A424BE7
:10409000B24B456182800509ADBF3307D4001306DA
:1040A0000003A301C7040347540493871600A29793
:1040B0008906A381E7049DBF85462286D2854E8569
:1040C000829AE30E65FB050945B7797122D426D2A1
:1040D0004AD04ECE06D652CC56CA5AC8B68983C6E6
:1040E0008501930790063289AA842E8413863504AD
:1040F000638DF60263E2D706930780056388F6189E
:1041000063EDD7006381062293073004638EF60ABD
:10411000930A24042301D404C9A0930730066385BD
:10412000F60A93074006E395F6FE1C40084393F613
:10413000070893054500C5C61C410CC363D807009A
:104140001307D002B307F040A301E4049736000040
:104150009386C6B329476DA8930700076384F616B4
:1041600063E5D7029307E006638BF6189307F00622
:10417000E390F6FA0C401C4313F80508138547003A
:104180006307080608C39C438DA893075007E38381
:10419000F6FE93078007638BF61293073007E399C7
:1041A000F6F61C43D04181459386470014C383AA89
:1041B00007005685DD2E01C53305554148C05C40DA
:1041C0001CC8A301040471A81C43930A2404938609
:1041D00047009C4314C32301F4048547D5B793F6E5
:1041E00007041C410CC3B9DAC207C18781BF93F52C
:1041F000050408C3C9D983D707001307F0066388ED
:10420000E60E97360000938666A82947A3010404AA
:104210004C400CC463C5050008406D9908C099E383
:10422000B28A91CDB28AB3F5E702FD1AB69583C57D
:1042300005002380BA00B3D5E70263F0E70CA1477D
:10424000631EF7001C40858B91CB58401C4863C708
:10425000E70093070003A38FFAFEFD1A33065641C9
:1042600010C84E87CA867000A2852685EFF03FD51C
:104270007D5A631E450B7D55B2502254925402590B
:10428000F249624AD24A424B45618280A382D504F8
:10429000973600009386869F0C40084313F8050864
:1042A0001C411105630D080208C313F7150001C76F
:1042B00093E505020CC04147B1FB0C4093F5F5FDB9
:1042C0000CC0A9B79C4193E707029CC193078007E4
:1042D000A302F404973600009386869C75BF13F8FA
:1042E000050408C3E30308FCC207C1837DBF9736FA
:1042F00000009386A699214711BFAE872DB7944140
:104300001C43CC4913F806081385470063060800D0
:1043100008C39C438CC301A808C393F606049C43BE
:10432000F5DA2390B70023280400B28A1DBF144891
:104330005686CA8526858299E30F45F31C40898BF2
:104340008DE7B2474844E359F5F23E8535B78546D7
:104350005686CA8526858299E30F65F1050A5C4475
:104360003247998FE345FAFEE9BF014A930A940167
:104370007D5BF5B7411122C42A842E8523AE01DC72
:1043800006C6EFC05FF0FD576317F5009387C1DDE8
:104390009C4391C31CC0B2402244410182809737A4
:1043A00000009387279188438280411122C42E8484
:1043B0008395E50006C6092C634905007C48AA9749
:1043C0007CC8B2402244410182808357C4007D777B
:1043D0007D17F98F2316F400EDB783D7C5000111BF
:1043E00022CC26CA4AC84EC606CE93F70710AA8426
:1043F0002E843289B68991C78395E50089460146A6
:10440000852A8357C4007D777D17F98F2316F40022
:104410008315E4006244F240CE864A86B24942499E
:104420002685D244056171A8411122C42E8483954A
:10443000E50006C6352AFD570357C400631BF50087
:10444000FD77FD17F98F2316F400B2402244410195
:1044500082808567D98F2316F40068C8FDB78395DD
:10446000E50079A0AA87850703C7F7FF6DFF3385AD
:10447000A7407D15828005C67D160147B307E5007C
:10448000B386E50083C7070083C606006396D7009E
:104490006304C7000507FDF33385D74082800145DB
:1044A000828091CD9307F00F63F7C7009307A008B0
:1044B0001CC17D5582802380C50005458280014551
:1044C0008280411122C42A842E85B285368623AE8D
:1044D00001DC06C6EFC07FD6FD576317F500938752
:1044E000C1DD9C4391C31CC0B24022444101828083
:1044F000411122C42A842E8523AE01DC06C6EF10AA
:10450000D07AFD576317F5009387C1DD9C4391C3B3
:104510001CC0B240224441018280411122C42A843D
:104520002E85B28523AE01DC06C6EF10D078FD578C
:104530006317F5009387C1DD9C4391C31CC0B24053
:10454000224441018280411122C42A842E8523AE57
:1045500001DC06C6EF10F076FD576317F500938770
:10456000C1DD9C4391C31CC0B24022444101828002
:10457000411122C42A842E85B285368623AE01DC01
:1045800006C6EF10D074FD576317F5009387C1DDA1
:104590009C4391C31CC0B240224441018280938756
:1045A000C180AA8588436FF0CFE393F5F50F2A9673
:1045B0006314C5000145828083470500E38DB7FE83
:1045C0000505FDB782808280411122C42A842E8590
:1045D000B285368623AE01DC06C6EF101070FD579B
:1045E0006317F5009387C1DD9C4391C31CC0B240A3
:1045F0002244410182803708100001117D18337771
:10460000B80026CA3378D80093D4450113D34601A5
:10461000131E37004EC61357D5010E089357D60107
:1046200093F4F47F1373F37F06CE22CC4AC893D958
:10463000F50193DEF6013367C701131F350033E838
:104640000701931F3600338E64406380D919635687
:10465000C0136304031CB70680009307F07F336820
:10466000D800638FF4369307800363C0C735FD47D6
:1046700063CDC747130500023305C541B3D7CF014A
:10468000B316A8003399AF00DD8E33392001B3573C
:10469000C80133E926011D8F33092F41B3372F019C
:1046A0003306F7409317860063D40724370780004A
:1046B0007D173374E600630C042C2285EFC0DFC93C
:1046C000130785FF93070002998FB357F90033163C
:1046D000E400D18F3319E9006341972A33059740ED
:1046E000130615007D47634DC73813070002118F6D
:1046F000B356C9003319E9003397E700558F3339B2
:1047000020013369270133D6C700814493777900AC
:1047100081CF1377F90091476308F7001307490029
:10472000333927014A963A899317860063D6071CC6
:10473000138514009307F07FCE856304F520B70737
:1047400080FFFD17F18F9398D70113593900A60701
:10475000B3E82801B1831375F57F9396C70052051E
:10476000F2406244B182FE05C98ECD8ED2444249E8
:10477000B2494685B68505618280631E0E0A1383A1
:1047800014001373E37F63170322B367E701B36871
:10479000F801639D041A6387074063860844330960
:1047A000FF41B307074133362F013386C7409317C4
:1047B000860063D6074C3389EF41B307E84033B630
:1047C0002F013386C740F68991B76350C00F63004D
:1047D000030CB70680009307F07F3368D800638A24
:1047E000F43A9307800363CBC713FD4763DFC735F4
:1047F00013090EFE93070002B3562801630AFE0058
:10480000130900043309C94133192801B3EF2F01FB
:104810003339F0013369D90031A2B367F801638AF3
:10482000071C9307FEFF638C07389306F07F63092C
:10483000DE1A3E8E0DBDB305934063910422B3672B
:10484000E701638707329387F5FF63810744930687
:10485000F07F638CD520BE859307800363CCB72A95
:10486000FD4763CFB73C930700028D8F3319F700E4
:10487000B356BF00B317FF003369D900B337F00058
:104880003357B7003369F9003308E84041ACB367E8
:10489000F801638007349307FEFF638A07209306BD
:1048A000F07F6308DE2E3E8E2DBF631E0E149386AE
:1048B000140093F7E67F63910734B367E7016395CC
:1048C000042C6380073EB367F801638E0730330919
:1048D000FF01B3070701333FE9013386E70193176F
:1048E000860063D70700B70780FFFD177D8E8544DC
:1048F00093777900E39F07E09317D6019358390027
:10490000B3E8F800935736001307F07F638DE40493
:10491000B207B18313F5F47FCE8581B53369F80111
:10492000333920017A99B337E9013386E7009317C9
:104930008600E3DF07FA85049307F07F6396F41897
:10494000CE851305F07F8147814801BDC1EB6384AB
:10495000083A931636009317D8018D82B3E8D70032
:10496000F68993573800B3E7F800F9DB8145130562
:10497000F07FB70708008148CDB3370680FF7D166A
:104980007D8E93777900998CE39507D8B5B74A85E2
:10499000EFC09F9C13078501FD47E3D5E7D21306BF
:1049A00085FFB317C900014905BB3369F8013339E5
:1049B0002001DDB13309FF413306074133342F01B4
:1049C000330486409317840063CD0724B3688900BD
:1049D000E39308CE8147814981441DBFE39808F8DD
:1049E0000E059317D7010D81B3E8A7009357370041
:1049F0009DBF0E059317D7010D81B3E8A700F28480
:104A00009357370011B73305934063820412B706FA
:104A100080009307F07F558F630DF32E930780037B
:104A200063CBA720FD4763C3A72A93070002898FA2
:104A30003319F700B356AF00B317FF003369D9003D
:104A4000B337F0003357A7003369F9003A987E99DD
:104A5000B337F901338607019A84D1BDB7068000C8
:104A60009307F07F558FE319F3DE931736008D839C
:104A70009318D801B3E81701F68993573800E5B5C4
:104A8000130715FE9306000233D7E700630AD6002A
:104A9000930600043386C6403396C7003369C900C5
:104AA000333920013369E9000146814491B5330966
:104AB000FF01B30707013336E9013E9693178600DD
:104AC0008544E3D707E28944B70780FFFD17F18FDC
:104AD0001357190013791900336927019398F701C7
:104AE00033E9280113D6170015B113090EFE9307F9
:104AF0000002B3562801630AFE00130900043309BB
:104B0000C94133192801B3EF2F013339F00133695B
:104B1000D90059B63369E7013339200133892F4170
:104B2000B3B72F013306F8409A84F689A5BEB36760
:104B3000E701638207189307F5FF6384071C930658
:104B4000F07F6304D5123E85D1BD93070002B38781
:104B5000C741B316F8003399FF0033D6CF01D18E89
:104B600033392001B357C80133E926013E975DBBB5
:104B7000931736008D839318D801B3E81701AE84DC
:104B800093573800F68949B3EDC33369F801E31F41
:104B900009DC0E059317D7010D81B368F500935713
:104BA0003700D1B36381080E931636009317D801EE
:104BB0008D82B3E8D700F6899357380091BB33094B
:104BC000FF41B3070741333F2F013386E741854457
:104BD000D1BC0E059317D7010D81B368F500F2849F
:104BE0009357370015B30E059317D7010D81B3E81E
:104BF000A7009357370029BB9307F07FE382F6D4D1
:104C00003309FF013336E901B3070701B2979398DF
:104C1000F7011359190033E9280113D61700B68498
:104C2000C1B93389EF413307E84033B62F0133046C
:104C3000C740F68949B43369E7013339200101BD22
:104C4000938705FE93060002B357F700638AD500E9
:104C500093060004B385B6403317B700336FEF00F7
:104C60003339E0013369F90055BD931736008D8360
:104C70009318D801B3E8170193573800EDB1B36822
:104C8000C900E39708C68147814959B13389EF418B
:104C9000B307E84033B62F013386C740F689854411
:104CA00011B4931636009317D8018D82B3E8D7005C
:104CB00093573800B1B9931636009317D8018D82F7
:104CC000B3E8D700AA84935738003DB9930705FE8F
:104CD00093060002B357F700630AD5009306000459
:104CE0003385A6403317A700336FEF003339E00157
:104CF0003369F900A9BB81451305F07FB7070800A8
:104D0000A9BC3309FF01B30707013336F9013E9609
:104D100075B3931636009317D8018D82B3E8D70088
:104D20009357380089B1397193D7450122DC4AD8AD
:104D300056D22A891394C50006DE26DA4ED652D4FE
:104D40005AD05ECE13F5F77F318093DAF501630B0D
:104D500005109307F07F630BF514135AD9010E0465
:104D600033648A00370A8000336A4401131B390018
:104D7000930415C00144814B13D846011399C60012
:104D80001378F87FB2881359C90093D9F601630EDE
:104D900008089307F07F6300F8041357D6010E0943
:104DA00033692701130818C0B70780003367F9007B
:104DB00093183600B38404418145BD4733C83A0196
:104DC00063E4871A97270000938747FF0A043E94FD
:104DD00010403E9602863367C900938414806312A4
:104DE00007101364240081488945C1BF1306F07F72
:104DF00081470147B207F25062545206B1837E08E0
:104E0000D18FB3E70701D2544259B259225A925A6C
:104E1000025BF24B3A85BE85216182800148130610
:104E2000F07FB70708000147F1B73367C9004DC7E6
:104E3000630809304A8532C4EFC00FD222461307F7
:104E400055FFF547930685FF998F3319D900B3575E
:104E5000F60033E72701B318D60026959304353FB3
:104E60008145A1BF336A240163030A0636C632C4F2
:104E70006306042A2285EFC02FCE2246B246AA84BA
:104E8000130755FF754A138B84FF330AEA40331426
:104E90006401335A4901336A8A00331B69011305DF
:104EA000D0C0B30495400144814BF9B5336A240165
:104EB00063180A002144014B9304F07F894B6DBDB8
:104EC000228A4A8B31449304F07F8D4B75B511448F
:104ED000014B8144854B4DB51364140081488545D1
:104EE000E9BD136434004A878D45C1BD630A052EB0
:104EF0008547898F9306800363DDF632014681473B
:104F00000147CDBDCE868947638DF53A8D47E3874E
:104F1000F5F085473688E383F5FE1385F43FE357C4
:104F2000A0FC93F778006396072893D63800931770
:104F3000770063D80700B70700FFFD177D8F138543
:104F400004409307E07FE3C3A7EA1316D701931742
:104F50009700B1833367D6001376F57F61BDD6869F
:104F60005287DA88DE8545B763614723630DEA20FF
:104F7000DA86FD145284014B9317870013D38801FE
:104F80003363F300935E0301B357D403131F03018C
:104F9000135F0F0193D50601139E88003374D40369
:104FA0003307FF024204C18D63FBE5009A95138627
:104FB000F7FF63EE652663FCE526F9179A95998D50
:104FC00033D7D503C206C182B3F5D5033306EF024A
:104FD000C205D58D63FBC5009A959306F7FF63E67E
:104FE000652463F4C52479179A95C20741645D8FDF
:104FF0009307F4FF3375F70093580701935F0E0191
:10500000B377FE00B302F502B386C540B383F8025E
:1050100093D502013386AF021E962E963385F80390
:10502000637376002295C168FD18935506013376A7
:1050300016014206B3F81201AA95469663E6B61227
:105040006382B6123306CB408D8E333BCB00338B5D
:1050500066411385F43F630C6317B358DB03935524
:105060000601337BDB03B3061F03420B33EB650101
:10507000637BDB001A9B9385F8FF636D6B20637B7A
:10508000DB20F9181A9B330BDB40B356DB034206D7
:105090004182337BDB03330FDF02420B3366660151
:1050A000637BE6011A969385F6FF6367661E637558
:1050B000E61FF9161A96C208B3E8D80093950801BE
:1050C00093D20801C181B38EF5023306E641B38560
:1050D000BF0293D60E01B387F202BE95AE96B38F90
:1050E0005F0263F4F600C167BE9FC165FD1593D7EB
:1050F0000601ED8EC206B3FEBE00BE9FF696637F2C
:10510000F6091A969387F8FF6369661A6368F619B9
:10511000630FF61BBE8893E8180011B54A85EFC0EF
:10512000AFA313075501F145930405022246B24689
:10513000E3DAE5D4130485FF331A8900014B85B304
:10514000328532C4EFC04FA113075501F146AA873B
:10515000224613050502E3D6E6CEE1173317F60023
:105160008148E5B9E370CBEE729B3335CB011A95DC
:10517000AA961305F7FF6378D30263E6B61063823D
:10518000D5102A87C1B5E3651BDF93551B00931625
:10519000FA0113541A00CD8E7E0BF9BBE31DF6F70E
:1051A000E38F06D6B9BFE31ED3FCE378CBFD2A8795
:1051B00051BD93F7F8009146E389D7D693B7C8FF5E
:1051C0009386480093C717008D823E978DB3814622
:1051D0008547E34CA0FEFD58E31C05D0930410C0A6
:1051E00085471385E441B316A70033D6F8003395FD
:1051F000A800D18E3335A000C98E13F67600335740
:10520000F70001CE93F7F60011466388C700938735
:105210004600B3B6D7003697BE869317870063D88B
:105220000704054681470147F1B636877DBBB28743
:1052300079B3FD46E3D7F6FA0556098E93060002C8
:105240003356C7006388D7009387E443B317F7004A
:10525000B3E8F800B3361001D18E13F6760081471B
:1052600001CE93F7F60011460147E392C7FA931770
:1052700097001316D701B18313D73600518F01461B
:1052800095BEE370CBF0729B3335CB011A9579173D
:10529000AA964DBBAE88C5BBAE8631BD93171E0026
:1052A00033BEC70172931A96F9183E8EE315F6E7DE
:1052B000E307DEC693E818009DB1BE88E30AF6FF57
:1052C00099BD36881306F07F8147014725B6E3670D
:1052D000DEFCBE88E310DEFE99B113D74501B707A7
:1052E0001000FD1713D846011377F77F9308F07F5E
:1052F00033FEB700AA8EF58FFD81328F1378F87FC9
:10530000FD82630B1701054363061801631407014F
:10531000630DFE001A858280B368AE000543E39BEF
:1053200008FEE319E8FED18FF5F70543E394EEFF9D
:105330000143E381D5FE054371FF3365AE0033338E
:10534000A000C9BF13D74501B7071000FD1713D838
:1053500046011377F77F9308F07F33F3B7002A8E67
:10536000F58FFD81B28E1378F87FFD8263081703F5
:10537000630018030DEBB368A300631408005D8E8F
:1053800029CA638508046388D502054595ED8280A6
:10539000B3E8C700E38008FE795582803365A30037
:1053A00065FD630CE802631408005D8E79DEE39E00
:1053B000D5FCE34CE8FC63480701E3E867FC6303C2
:1053C000F302637FF30081E57D558280F5DE0545BC
:1053D00082800145E39B08FA82805D8E69DA6DBFA9
:1053E00001458280E3E3CEFB0145E372DEFBE5F19C
:1053F000E1BF13D74501B7071000FD1713D84601C9
:105400001377F77F9308F07F33FEB700AA8EF58FEE
:10541000FD81328F1378F87FFD82630E1703630DD1
:10542000180129E3B368AE00631F08005D8E01EE2A
:105430000143638C080421A8B3E8C70009436396BD
:1054400008046DD305A0638408046385D502054371
:105450008DCD7D531DA8B368AE0009436397080244
:10546000630AE802631408005D8E75D2E391D5FEED
:10547000E34FE8FC63490701E3EBC7FD630FFE0060
:1054800001436374FE00F1D505431A858280EDFE69
:105490007D53E5BF5D8E79DACDBFE36ADFFB014363
:1054A000E3F5EEFFF5F175B739714AD813D9450127
:1054B0004ED652D456D29399C50006DE22DC26DAA7
:1054C0005AD05ECE1379F97F2A8A93D9C90093DA2C
:1054D000F501630D090E9307F07F6306F918135465
:1054E000D5018E09B36934013704800033E48900A3
:1054F00093143500130919C08149814B13D7460114
:10550000139AC6001377F77FB285135ACA0013DBCC
:10551000F601630B07109307F07F6303F7049357BB
:10552000D6010E0A33EA4701130717C0B7078000F8
:10553000B367FA00931536003A99814833C76A0178
:10554000BD463A851308190063E836171726000090
:105550001306C68A8A09B29983A60900B296828682
:10556000B367CA001309F97F6399071293E9290009
:1055700081458948E1B701479307F07F3704080068
:1055800081443204D20731807E075D8C598CA2851C
:10559000F250625426854259D254B259225A925A34
:1055A000025BF24B216182805A853E84AE84C68BB9
:1055B0008947638DFB0E8D47E38FFBFA85472A876A
:1055C000639EFB3881470144814465BF33E4A900F1
:1055D00061C036C632C4638C092A4E85EFB0DFD76E
:1055E0002246B246AA87130755FF7544938487FF66
:1055F000198CB399990033548A0033643401B3147D
:105600009A0013D746011309D0C0139AC600137726
:10561000F77F3309F9408149814BB285135ACA009B
:1056200013DBF601E31907EEB367CA00B1C7630FD6
:105630000A22528532C4EFB03FD222462A8793060F
:1056400055FFF547930587FF958F331ABA00B35777
:10565000F600B3E74701B315B6003309E940130973
:10566000D9C08148E1BD33E4A90001ECA1498144DE
:105670001309F07F894B59B593E919008145854895
:1056800075BD4E84AA84B1491309F07F8D4BBDB519
:10569000914981440149854B95B593E93900D287F9
:1056A0008D4869BD89475685E397FBF02A879307A4
:1056B000F07F01448144F1B5C16E1386FEFF93D69D
:1056C000040113DE0501F18CF18D338695023383DD
:1056D000B6029358060133059E021A95AA98B38222
:1056E000C60363F36800F692C16F1383FFFF33F5BF
:1056F000670093D30701B3F76800C20733736600EE
:105700003E933306950293D80801B387A602135F30
:105710000601B3849302BE94FA94B38E760263F3C7
:10572000F400FE9E416A9307FAFF935F0401B3768B
:10573000F400B3F9F4007D8EC1803384D502C20930
:10574000338FD401B299CE98B307DE02935E040181
:10575000B385BF02AE97BE9E330EFE0363F3BE0059
:10576000529EC1679385F7FF33F6BE006D8C4206EB
:10577000229693DE0E01B305D502769E3385AF02E5
:1057800013D40501B386D302AA96A296B38FF3036E
:1057900063F3A600BE9F41657D15B3F7A600C2075F
:1057A0006D8DAA97B3855800B3B93501FA97B295B4
:1057B0003384370133B6C500B30EC4013385CE0040
:1057C00033343401B3B7E701C18F33BECE0113D4F4
:1057D00006013336C5003E943366CE00939495009F
:1057E00032947E94B3E46400260493567501B33476
:1057F0009000DD8193179500CD8C558CDD8C93172F
:10580000740063DB070093D7140085889316F401B6
:10581000DD8CD58C058042899307F93F6359F008E8
:1058200093F6740081CE93F6F40011466388C600A7
:1058300093864400B3B496002694B68493167400FD
:1058400063D80600B70700FFFD177D8C930709405A
:105850009306E07F63CFF60E93D634009314D40101
:105860002604D58C318093F7F77F21BB328532C473
:10587000EFB09FAE93065501F1471307050222468C
:10588000E3D1D7DC6115B317A6008145F9B3EFB0BA
:10589000BFAC13075501F145930705022246B246F6
:1058A000E3D5E5D461153314AA00814499BB85463C
:1058B0009D8EB1E71309E941B3972401B3D4D40015
:1058C00033192401B337F000B3649900DD8C93F7EA
:1058D0007400B356D40081CF93F7F4001146638867
:1058E000C70093874400B3B49700A696BE849397ED
:1058F000860063D8070485470144814459B11306E3
:105900008003E341D6CC7D46E356D6FA0556B3076D
:10591000F640930500023356F4006387B60013097E
:10592000E943B3172401DD8CB3349000D18C93F696
:105930007400014499CA93F7F40011468146E3923A
:10594000C7FA139496003180F6068D80D58C814776
:105950000DB99307F07F0144814425B142896DBDA3
:10596000370710007D1701113373B70093D8460134
:10597000758F935ED60122CC26CA0E0393D44501BF
:105980009357D5010E0706CE4AC84EC693F8F87F46
:10599000130EF07F33E7EE0093F4F47F13D4F50198
:1059A00033E36700131F3500FD82931E36006380CA
:1059B000C81993C61600B38514416305D412635108
:1059C000B018638B081AB70780005D8F6381C459D4
:1059D0009307800363C4B734FD4763C5B748930793
:1059E00000028D8FB3D9BE003318F700B39EFE00BE
:1059F000336838013357B700B339D0013368380101
:105A00003303E340B3090F41B3373F013306F3409B
:105A10009317860063D30724370980007D193379F3
:105A20002601630F092C4A85EFB01F93130785FFEA
:105A300093070002998FB3D7F9003316E900D18F8D
:105A4000B399E9006344972A058F13061700FD46B2
:105A500063C5C63A13070002118FB3D6C900339845
:105A6000E9003397E700558F33380001B369070128
:105A700033D6C700814493F7790081CF93F6F900BC
:105A800091476388F6009386490033B83601429601
:105A9000B6899317860063D6071C138714009307F3
:105AA000F07F05886306F720B70780FFFD17F18FA9
:105AB0001398D70193D93900A60733683801B18309
:105AC0001377F77F9396C7005207B1827E04D98E71
:105AD000C18EF2406244D2444249B2494285B68501
